:020000040800F2
:10000000000003205D7F0008AD7F0008AD7F000881
:10001000AD7F0008AD7F0008AD7F00080000000044
:100020000000000000000000000000000145000882
:10003000AD7F00080000000011470008D10500084E
:10004000AD7F0008AD7F0008AD7F0008AD7F0008E0
:10005000AD7F0008AD7F0008AD7F0008AD7F0008D0
:10006000AD7F0008AD7F0008AD7F0008AD7F0008C0
:10007000AD7F0008AD7F0008AD7F0008AD7F0008B0
:10008000AD7F0008AD7F0008AD7F0008AD7F0008A0
:10009000AD7F0008AD7F0008AD7F0008AD7F000890
:1000A000AD7F0008AD7F0008AD7F0008AD7F000880
:1000B000AD7F0008AD7F0008AD7F0008AD7F000870
:1000C000AD7F0008AD7F0008AD7F0008AD7F000860
:1000D000AD7F0008AD7F0008AD7F0008AD7F000850
:1000E000AD7F0008AD7F0008AD7F0008AD7F000840
:1000F000AD7F0008AD7F0008AD7F0008AD7F000830
:10010000AD7F0008AD7F0008AD7F0008AD7F00081F
:10011000AD7F0008AD7F0008DD050008AD7F000859
:10012000AD7F0008AD7F0008AD7F0008AD7F0008FF
:10013000AD7F0008AD7F0008AD7F0008AD7F0008EF
:10014000AD7F0008AD7F0008AD7F0008AD7F0008DF
:10015000AD7F0008AD7F0008AD7F0008AD7F0008CF
:10016000AD7F0008AD7F0008AD7F0008AD7F0008BF
:10017000AD7F0008F1050008AD7F00080000000019
:10018000AD7F0008AD7F0008AD7F0008AD7F00089F
:10019000AD7F0008AD7F0008AD7F0008AD7F00088F
:0C01A000AD7F0008AD7F0008AD7F0008B7
:1001B00010B5054C237833B9044B13B10448AFF3A1
:1001C00000800123237010BDC0010020000000004A
:1001D0000C9000080C4B43B10C480D4910B5AFF31F
:1001E00000800C48036823B910BD0A48036833B97E
:1001F0007047094B002BF7D0BDE810401847064B5D
:10020000002BF5D0184700BF000000000C9000083C
:10021000C4010020C0010020000000000000000018
:1002200001F0FF01102A2BDB10F0070F08D010F8A7
:10023000013B013A8B422DD010F0070F42B3F6D1AB
:10024000F0B441EA012141EA014122F007047FF0C4
:1002500000070023F0E80256083C85EA010586EA1B
:10026000010685FA47F5A3FA87F586FA47F6A5FA57
:1002700087F68EB9EED1F0BC01F0FF0102F0070263
:1002800032B110F8013B013A83EA010313B1F8D10E
:100290000020704701387047002D06BF35460338EF
:1002A000073815F0010F07D1013015F4807F02BF28
:1002B000013015F4C03F0130F0BC0138704700BF79
:1002C00053B94AB9002908BF00281CBF4FF0FF31BD
:1002D0004FF0FF3000F07AB9ADF1080C6DE904CEB3
:1002E00000F006F8DDF804E0DDE9022304B0704711
:1002F0002DE9F0478C460D460446089E002B51D14F
:100300008A4217466DD9B2FA82FEBEF1000F0BD0B9
:10031000CEF1200C01FA0EF520FA0CFC02FA0EF7D1
:100320004CEA050C00FA0EF44FEA174A250CBCFB08
:10033000FAF81FFA87F90AFB18CC45EA0C4508FBC6
:1003400009F3AB420AD9ED1908F1FF3280F023819D
:10035000AB4240F22081A8F102083D44ED1AA4B25C
:10036000B5FBFAF00AFB105544EA054400FB09F915
:10037000A14509D9E41900F1FF3380F00A81A145B4
:1003800040F2078102383C44A4EB090440EA0840EB
:100390000021002E61D024FA0EF400233460736033
:1003A000BDE8F0878B4207D9002E54D0002186E8A3
:1003B00021000846BDE8F087B3FA83F1002940F038
:1003C0008E80AB4202D3824200F2FA80841A65EB3F
:1003D00003050120AC46002E3FD086E81010BDE892
:1003E000F08712B90127B7FBF2F7B7FA87FEBEF123
:1003F000000F34D1EB1B3A0C1FFA87FC0121B3FB31
:10040000F2F8250C02FB183345EA03450CFB08F310
:10041000AB4207D9ED1908F1FF3002D2AB4200F22E
:10042000D1808046ED1AA3B2B5FBF2F002FB105565
:1004300043EA05440CFB00FCA44507D9E41900F18C
:10044000FF3302D2A44500F2B8801846A4EB0C0496
:1004500040EA08409DE731463046BDE8F087CEF1DE
:10046000200405FA0EF307FA0EF720FA04F83A0C06
:1004700025FA04F448EA0308B4FBF2F14FEA184500
:1004800002FB11441FFA87FC45EA044501FB0CF30B
:10049000AB4200FA0EF409D9ED1901F1FF3080F0FA
:1004A0008A80AB4240F2878002393D44EB1A1FFA42
:1004B00088F5B3FBF2F002FB103345EA034500FB7D
:1004C0000CF3AB4207D9ED1900F1FF386FD2AB4204
:1004D0006DD902383D44EB1A40EA01418FE7C1F182
:1004E000200722FA07F88B4005FA01F448EA0303D3
:1004F00020FA07FE4FEA134CFD404EEA040EB5FB0E
:10050000FCF94FEA1E440CFB19551FFA83F844EA24
:10051000054509FB08F4AC4202FA01F200FA01FABF
:1005200008D9ED1809F1FF3043D2AC4241D9A9F105
:1005300002091D442D1B1FFA8EFEB5FBFCF00CFBBF
:1005400010554EEA054400FB08F8A04507D9E41809
:1005500000F1FF3529D2A04527D902381C4440EAD2
:100560000940A4EB0804A0FB02894C45C6464D4651
:1005700015D312D056B1BAEB0E0364EB050404FA9E
:1005800007F7CB401F43CC40376074600021BDE8C3
:10059000F0871846F8E69046E0E6C245EAD2B8EBA6
:1005A000020E69EB03050138E4E72846D7E7404629
:1005B00091E78146BEE7014678E702383C4445E7CB
:1005C000084608E7A8F102083D442BE7704700BF42
:1005D00080B500AF02F039FC00BF80BD80B500AF30
:1005E000024804F03FFF00BF80BD00BF98450020D7
:1005F00080B500AF024802F0C1FD00BF80BD00BF62
:10060000A841002080B500AF01220849084806F043
:100610002BFA0849064806F052FA0749044803F045
:1006200083FE034806F065FA00BF80BD1801002074
:100630003C3F0020100000204C010020B0B586B0E7
:1006400000AF06F041F800F023F800F0C5F800F024
:1006500095F80C4B3C1D1D460FCD0FC42B68236035
:100660003B1D0021184602F0B5FB0246064B1A60FE
:1006700002F0A9FB054807F0EBFD642002F0D1FB76
:10068000F8E700BF3890000860410020249000087F
:1006900080B594B000AF0023BB60344A334B1B6C71
:1006A00043F080531364314B1B6C03F08053BB60E9
:1006B000BB6800237B602E4A2D4B1B6823F440430C
:1006C00043F4804313602A4B1B6803F440437B6070
:1006D0007B6801233B624FF480337B620223BB6360
:1006E0004FF48003FB6304233B6448237B640223B1
:1006F000BB640323FB6407F12003184605F040F9AF
:100700000346002B03D0C2211A4800F0F1FA0F2350
:10071000FB6002233B6100237B614FF48053BB618C
:100720000023FB6107F10C030221184605F050FB82
:100730000346002B03D0D0210E4800F0D9FA05F073
:1007400001FD02460C4BA3FB02239B09184604F053
:1007500010FE042004F01AFE00220F214FF0FF309B
:1007600004F0DDFD00BF5037BD4680BD00380240BB
:10077000007000404C900008D34D621080B500AF6F
:10078000124B134A1A60114B4FF4E1325A600F4B6F
:1007900000229A600D4B0022DA600C4B00221A6195
:1007A0000A4B0C225A61094B00229A61074B002226
:1007B000DA61064807F086F80346002B03D0ED21E6
:1007C000044800F095FA00BF80BD00BF68410020DA
:1007D000001001404C90000880B58EB000AF00239F
:1007E0003B62B14AB04B1B6B43F004031363AE4B47
:1007F0001B6B03F004033B623B6A0023FB61AA4AC4
:10080000A94B1B6B43F020031363A74B1B6B03F037
:100810002003FB61FB690023BB61A34AA24B1B6B56
:1008200043F080031363A04B1B6B03F08003BB6199
:10083000BB6900237B619C4A9B4B1B6B43F001030C
:100840001363994B1B6B03F001037B617B690023EE
:100850003B61954A944B1B6B43F002031363924B2D
:100860001B6B03F002033B613B690023FB608E4A74
:100870008D4B1B6B43F0400313638B4B1B6B03F0DF
:100880004003FB60FB680023BB60874A864B1B6B01
:1008900043F010031363844B1B6B03F01003BB6026
:1008A000BB6800237B60804A7F4B1B6B43F00803CF
:1008B00013637D4B1B6B03F008037B607B68002296
:1008C00016217A4805F0E6FE00228021784805F0DE
:1008D000E1FE00224FF44051764805F0DBFE002295
:1008E0004FF4C041744805F0D5FE4FF63F037B62DC
:1008F0000223BB620023FB6203233B630C237B6365
:1009000007F1240319466D4805F01AFD4FF4607392
:100910007B620223BB620023FB6200233B6305234F
:100920007B6307F124031946644805F009FD4FF481
:1009300080637B620223BB620023FB6200233B6374
:100940000E237B6307F1240319465C4805F0F8FC8D
:1009500001237B620223BB620023FB6203233B6310
:100960000C237B6307F124031946504805F0E8FC8B
:1009700016237B620123BB620023FB6200233B63DF
:1009800007F124031946494805F0DAFC48F2070349
:100990007B624B4BBB620023FB6207F124031946C9
:1009A000434805F0CDFC41F658037B620223BB624D
:1009B0000023FB6200233B630E237B6307F12403C8
:1009C00019463B4805F0BCFC80237B620123BB62D7
:1009D0000023FB6200233B6307F1240319463448DC
:1009E00005F0AEFC20237B62354BBB620023FB622B
:1009F00007F1240319462D4805F0A2FC03237B626E
:100A00000223BB620023FB6200233B6309237B6359
:100A100007F1240319462B4805F092FC04237B625E
:100A20000023BB620023FB6207F12403194625481B
:100A300005F086FC48F233137B620223BB6200237D
:100A4000FB6203233B630C237B6307F124031946FA
:100A5000194805F075FC4FF683737B620223BB6275
:100A60000023FB6203233B630C237B6307F1240316
:100A70001946154805F064FC4FF470637B6202234D
:100A8000BB620023FB6200233B630E237B6307F101
:100A9000240319460B4805F053FC4CF203737B62A8
:100AA0000223BB6212E000BF00380240000802408F
:100AB00000000240000C02400018024000140240F6
:100AC0000000121000040240001002400023FB62EC
:100AD00003233B630C237B6307F12403194653482C
:100AE00005F02EFC4FF400637B620023BB62002301
:100AF000FB6207F1240319464C4805F021FC4FF432
:100B000040537B620123BB620023FB6200233B63F3
:100B100007F124031946454805F012FC4FF40C6315
:100B20007B620223BB620023FB6200233B630E2334
:100B30007B6307F1240319463D4805F001FC4FF49F
:100B400098637B620223BB620023FB6200233B634A
:100B50000E237B6307F124031946364805F0F0FBAA
:100B60004FF400737B621223BB620123FB620023FC
:100B70003B6304237B6307F1240319462D4805F0EA
:100B8000DFFB4FF480737B621223BB620123FB62A5
:100B900000233B6304237B6307F1240319462648A3
:100BA00005F0CEFB48237B620223BB620023FB627D
:100BB00000233B630E237B6307F1240319461B4884
:100BC00005F0BEFB4FF4A0537B620223BB620023FF
:100BD000FB6200233B6309237B6307F1240319466F
:100BE000134805F0ADFB4FF4C0437B620123BB62A9
:100BF0000023FB6200233B6307F1240319460C48E2
:100C000005F09EFB60237B620223BB620023FB6234
:100C100003233B630C237B6307F124031946074836
:100C200005F08EFB00BF3837BD4680BD000C02408A
:100C30000018024000080240000002400004024088
:100C400080B586B002AF7860FFF7DCFC4FF4FA6045
:100C500005F076FD9023FB733C23BB7340237B732D
:100C6000FA7BB97B7B7B00930B461549154807F04F
:100C700007FB03469AB2144B1A80134B1B88194684
:100C8000104805F0CBFEC82002F0CBF88023FB73A0
:100C90003C23BB7340237B73FA7BB97B7B7B009344
:100CA0000B460749074807F0EBFA03469AB2064B92
:100CB0001A80054B1B881946024805F0AFFEC5E7B0
:100CC0006490000864410020DC01002080B582B0FF
:100CD00000AF78607B681B68044A934201D105F03D
:100CE00015FD00BF0837BD4680BD00BF00100040A5
:100CF00080B483B000AF78603960FEE780B582B021
:100D000000AF0346FB71F91D4FF47A7301220348CB
:100D100006F025FE00BF0837BD4680BD68410020B3
:100D200080B586B000AFF860B9607A603B603B6820
:100D30007B617B683B6106E03B695A1C3A611B782A
:100D40001846FFF7DBFF7B695A1E7A61002BF3D14F
:100D50003B6818461837BD4680BD000080B58AB094
:100D600000AF78600023FB6106F09EFA574B1B68CA
:100D7000002B01D100F00CF9554B1A687B68134029
:100D8000002B40F08C807B68002B1CD008227B68F5
:100D900013447B607B6803F00703002B13D07B6850
:100DA00023F0070308337B607B6803F00703002B05
:100DB00009D04FF0500383F31188BFF36F8FBFF357
:100DC0004F8F7B61FEE77B68002B68D0414B1B682F
:100DD0007A689A4263D8404B3B623F4B1B687B6208
:100DE00004E07B6A3B627B6A1B687B627B6A5A68B1
:100DF0007B689A4203D27B6A1B68002BF1D1334B8C
:100E00001B687A6A9A424AD03B6A1B6808221344DC
:100E1000FB617B6A1A683B6A1A607B6A5A687B6866
:100E2000D21A08235B009A421ED97A6A7B6813445F
:100E3000BB61BB6903F00703002B09D04FF05003DF
:100E400083F31188BFF36F8FBFF34F8F3B61FEE7D2
:100E50007B6A5A687B68D21ABB695A607B6A7A6877
:100E60005A60B86900F0F6F81A4B1A687B6A5B683A
:100E7000D31A184A1360174B1A68184B1B689A420A
:100E800003D2144B1B68154A13607B6A5A68104BD7
:100E90001B681A437B6A5A607B6A00221A6006F05C
:100EA00011FAFB6903F00703002B09D04FF0500340
:100EB00083F31188BFF36F8FBFF34F8FFB60FEE7A3
:100EC000FB6918462837BD4680BD00BFE83D0020BD
:100ED000F43D0020EC3D0020E03D0020F03D0020EE
:100EE00080B586B000AF78607B687B617B68002B43
:100EF00046D008235B427A6913447B617B693B617E
:100F00003B695A68204B1B681340002B09D14FF0F6
:100F1000500383F31188BFF36F8FBFF34F8FFB60D4
:100F2000FEE73B691B68002B09D04FF0500383F3A9
:100F30001188BFF36F8FBFF34F8FBB60FEE73B6934
:100F40005A68114B1B681340002B19D03B691B6872
:100F5000002B15D13B695A680B4B1B68DB431A40C9
:100F60003B695A6006F0A0F93B695A68074B1B6859
:100F70001344064A1360386900F06CF806F0A2F9D1
:100F800000BF1837BD4680BDF43D0020EC3D002079
:100F900080B485B000AF4FF47053BB60274BFB604B
:100FA000FB6803F00703002B0CD0FB680733FB60E2
:100FB000FB6823F00703FB60BA68FB68D31A1F4A7B
:100FC0001344BB60FB687B601D4A7B6813601C4B4D
:100FD00000225A607A68BB681344FB600822FB68F1
:100FE0009B1AFB60FB6823F00703FB60FB68154A54
:100FF0001360144B1B6800225A60124B1B680022BE
:101000001A607B683B603B68FA68D21A3B685A609A
:101010000C4B1A683B681A603B685B680A4A1360AD
:101020003B685B68094A1360094B4FF000421A6045
:1010300000BF1437BD465DF8047B7047E001002017
:10104000E03D0020E83D0020F03D0020EC3D002088
:10105000F43D002080B485B000AF7860284BFB6081
:1010600002E0FB681B68FB60FB681A687B689A42B9
:10107000F7D3FB68BB60FB685B68BA681A447B689F
:101080009A4208D1FB685A687B685B681A44FB681F
:101090005A60FB687B607B68BB607B685B68BA6892
:1010A0001A44FB681B689A4218D1FB681A68154BF2
:1010B0001B689A420DD07B685A68FB681B685B68A6
:1010C0001A447B685A60FB681B681A687B681A6060
:1010D00008E00C4B1A687B681A6003E0FB681A682A
:1010E0007B681A60FA687B689A4202D0FB687A686B
:1010F0001A6000BF1437BD465DF8047B704700BF1F
:10110000E03D0020E83D002084B080B582B000AF13
:10111000786007F1140080E80E00BB6A012B20D133
:101120007B689B6B23F480327B689A637B68DB6807
:1011300023F4840323F040037A68D3607B68DB6880
:1011400023F440127B68DA607B6C012B05D17B684D
:10115000DB6843F480127B68DA60786801F0C4F9D8
:101160000CE07B68DB6843F040027B68DA607868FB
:1011700001F0BAF97B684FF480329A633B6A012B25
:101180000BD17B689B6843F006027B689A607B68A2
:101190009B6843F020027B689A600023184608375A
:1011A000BD46BDE8804004B0704780B483B000AF56
:1011B00078607B689B6843F001027B689A6000233B
:1011C00018460C37BD465DF8047B704780B483B089
:1011D00000AF78607B689B6823F001027B689A60AF
:1011E000002318460C37BD465DF8047B704780B578
:1011F00082B000AF78600B46FB707B68DB6823F041
:10120000C0427B68DA60FB78012B06D17B68DB6823
:1012100043F000527B68DA6008E0FB78002B05D1D0
:101220007B68DB6843F080427B68DA60322005F03F
:1012300087FA002318460837BD4680BD84B080B5C4
:1012400084B000AF786007F11C0080E80E00002336
:10125000FB607B6C002B06D17B689B6B43F4001218
:101260007B689A6305E07B689B6B43F400227B6894
:101270009A637B6803F560631A46002313607B68FA
:1012800003F500631A467B6803F500631B6813606F
:101290003B6B012B0CD17B6A002B04D100217868B9
:1012A00000F046F908E00121786800F041F903E018
:1012B0000321786800F03CF91021786800F0F0F81C
:1012C000786800F013F97B6803F500631A46002381
:1012D00013617B6803F500631A46002353617B6842
:1012E00003F500631A464FF0FF3393617B6803F503
:1012F00000631A460023D3610023FB6034E0FB68DF
:101300005A017B68134403F510631B6803F0004324
:10131000B3F1004F0AD1FB685A017B68134403F50F
:1013200010631A464FF09043136008E0FB685A01BF
:101330007B68134403F510631A4600231360FB68AF
:101340005A017B68134403F510631A4600231361A6
:10135000FB685A017B68134403F510631A46FF23A8
:101360009360FB680133FB60FA69FB689A42C6D858
:101370000023FB6034E0FB685A017B68134403F5EB
:1013800030631B6803F00043B3F1004F0AD1FB68E0
:101390005A017B68134403F530631A464FF09043BB
:1013A000136008E0FB685A017B68134403F530635F
:1013B0001A4600231360FB685A017B68134403F547
:1013C00030631A4600231361FB685A017B6813449B
:1013D00003F530631A46FF239360FB680133FB601B
:1013E000FA69FB689A42C6D87B6803F500631A461F
:1013F0007B6803F500631B6923F480731361BB6A88
:10140000012B17D17B6803F500631A46224B136347
:101410007B6803F500631A467B6803F500631B6B6A
:1014200043F4803343F0030313637B6803F50063E5
:101430001B6BFB607B6800229A617B686FF08042C7
:101440005A61BB6A002B05D17B689B6943F010028F
:101450007B689A617B689A69104B13437A68936141
:101460007B6B002B05D07B689B6943F008027B688F
:101470009A617B6C012B07D17B689B6943F08043A9
:1014800043F004037A689361002318461037BD4681
:10149000BDE8804004B070470001800000383C8007
:1014A00080B485B000AF786039600023FB603B6892
:1014B0009B0143F020027B681A61FB680133FB60EB
:1014C000FB68094A934201D9032306E07B681B6944
:1014D00003F02003202BF0D0002318461437BD461C
:1014E0005DF8047B704700BF400D030080B485B0F9
:1014F00000AF78600023FB607B6810221A61FB68F4
:101500000133FB60FB68094A934201D9032306E0DB
:101510007B681B6903F01003102BF0D000231846E2
:101520001437BD465DF8047B704700BF400D0300D3
:1015300080B483B000AF78600B46FB707B6803F526
:10154000006319467B6803F500631A68FB78134350
:101550000B60002318460C37BD465DF8047B7047CE
:1015600080B485B000AF78600023FB737B6803F51F
:1015700000639B6803F00603002B02D10023FB737A
:101580001CE07B6803F500639B6803F00603022BF5
:1015900007D07B6803F500639B6803F00603062B06
:1015A00002D10323FB7309E07B6803F500639B68AA
:1015B00003F00603042B01D10223FB73FB7B1846C7
:1015C0001437BD465DF8047B704780B483B000AF2C
:1015D000786039603B685B78012B3ED17B6803F50E
:1015E000006319467B6803F50063DA693B681B7882
:1015F0001846012383409BB21343CB613B681B78A1
:101600005A017B68134403F510631B6803F400431D
:10161000002B5CD13B681B785A017B68134403F5AF
:10162000106318463B681B785A017B68134403F526
:1016300010631A683B689B68C3F30A033968C9786A
:1016400089040B433968097889050B43134343F038
:10165000805343F40043036039E07B6803F5006383
:1016600019467B6803F50063DA693B681B78184606
:10167000012383401B041343CB613B681B785A0151
:101680007B68134403F530631B6803F40043002BAD
:101690001DD13B681B785A017B68134403F5306306
:1016A00018463B681B785A017B68134403F5306386
:1016B0001A683B689B68C3F30A033968C9788904D0
:1016C0000B43134343F0805343F400430360002370
:1016D00018460C37BD465DF8047B704780B584B072
:1016E00000AF786039600023FB603B685B78012BBA
:1016F00054D13B681B785A017B68134403F510638F
:1017000019463B681B785A017B68134403F5106344
:101710001B6823F400430B603B681B785A017B680D
:10172000134403F510631A464FF0006313603B68DF
:101730001B785A017B68134403F510631A464FF077
:1017400080431360FB680133FB60FB68434A9342AC
:1017500001D903237DE03B681B785A017B68134461
:1017600003F510639B6803F08043B3F1804FE9D029
:1017700010217868FFF794FE7B6803F50063194633
:101780007B6803F50063DA693B681B781846012320
:1017900083409BB2DB431340CB6159E03B681B782D
:1017A0005A017B68134403F5306319463B681B7884
:1017B0005A017B68134403F530631B6823F400432C
:1017C0000B603B681B785A017B68134403F5306358
:1017D0001A464FF0006313603B681B785A017B6820
:1017E000134403F530631A464FF080431360FB68DF
:1017F0000133FB60FB68194A934201D9032328E0B7
:101800003B681B785A017B68134403F530639B687F
:1018100003F01003102BEAD07B6803F500631A462F
:101820007B6803F500635B6843F4806353607B6807
:1018300003F5006319467B6803F50063DA693B68CA
:101840001B781846012383401B04DB431340CB6104
:10185000002318461037BD4680BD00BF400D030071
:1018600080B588B002AFF860B9601346FB71002301
:10187000FB82BB685B78012B40F04681BB685B69EB
:10188000002B3BD1BB681B785A01FB68134403F55E
:1018900010631946BB681B785A01FB68134403F5B3
:1018A00010631B6923F0FF5323F4C0130B61BB6863
:1018B0001B785A01FB68134403F510631946BB6893
:1018C0001B785A01FB68134403F510631B6943F44A
:1018D00000230B61BB681B785A01FB68134403F5B6
:1018E00010631946BB681B785A01FB68134403F563
:1018F00010631B69DB0CDB040B6186E0BB681B78A3
:101900005A01FB68134403F510631946BB681B7842
:101910005A01FB68134403F510631B69DB0CDB04FD
:101920000B61BB681B785A01FB68134403F5106315
:101930001946BB681B785A01FB68134403F5106312
:101940001B6923F0FF5323F4C0130B61BB681B78A2
:101950005A01FB68134403F510631846BB681B78F3
:101960005A01FB68134403F510631A69BB6859698F
:10197000BB689B680B44591EBB689B68B1FBF3F3C3
:10198000D9048C4B0B4013430361BB681B785A018D
:10199000FB68134403F510631946BB681B785A01B2
:1019A000FB68134403F510631A69BB685B69C3F3F2
:1019B000120313430B61BB68DB78012B25D1BB6895
:1019C0001B785A01FB68134403F510631946BB6882
:1019D0001B785A01FB68134403F510631B6923F05D
:1019E000C0430B61BB681B785A01FB68134403F5C5
:1019F00010631946BB681B785A01FB68134403F552
:101A000010631B6943F000530B61FB79012B0BD171
:101A1000BB681B785A01FB68134403F510631A4630
:101A2000BB681B69536116E0BB68DB78012B12D0E1
:101A3000BB685B69002B0ED0FB6803F50063194699
:101A4000FB6803F500635A6BBB681B7818460123DB
:101A5000834013434B63BB68DB78012B2ED1FB68BB
:101A600003F500639B6803F48073002B13D1BB68FC
:101A70001B785A01FB68134403F510631946BB68D1
:101A80001B785A01FB68134403F510631B6843F08D
:101A900000530B6012E0BB681B785A01FB681344CB
:101AA00003F510631946BB681B785A01FB681344A1
:101AB00003F510631B6843F080530B60BB681B7811
:101AC0005A01FB68134403F510631946BB681B7881
:101AD0005A01FB68134403F510631B6843F0044389
:101AE0000B60BB68DB78012B40F0F580BB68D968E0
:101AF000BB681A78BB685B6998B2FB7900930346B0
:101B0000F86800F04EFAE6E0BB681B785A01FB6803
:101B1000134403F530631946BB681B785A01FB6810
:101B2000134403F530631B69DB0CDB040B61BB68FA
:101B30001B785A01FB68134403F530631946BB68F0
:101B40001B785A01FB68134403F530631B6923F0CB
:101B5000FF5323F4C0130B61BB685B69002B2BD1CF
:101B6000BB681B785A01FB68134403F530631946C0
:101B7000BB681B785A01FB68134403F530631A698C
:101B8000BB689B68C3F3120313430B61BB681B78EC
:101B90005A01FB68134403F530631946BB681B7890
:101BA0005A01FB68134403F530631B6943F40023B7
:101BB0000B613CE00000F81FBB685A69BB689B687A
:101BC00013445A1EBB689B68B2FBF3F3FB82BB68ED
:101BD0001B785A01FB68134403F530631946BB6850
:101BE0001B785A01FB68134403F530631A69FB8ABA
:101BF000DB0418463A4B034013430B61BB681B7868
:101C00005A01FB68134403F530631846BB681B7820
:101C10005A01FB68134403F530631A69BB689B687B
:101C2000F98A01FB03F3C3F3120313430361FB7946
:101C3000012B0AD1BB681B785A01FB68134403F5DA
:101C400030631A46BB68DB685361BB68DB78012BE5
:101C50002ED1FB6803F500639B6803F48073002BAF
:101C600013D1BB681B785A01FB68134403F530633A
:101C70001946BB681B785A01FB68134403F53063AF
:101C80001B6843F000530B6012E0BB681B785A01DD
:101C9000FB68134403F530631946BB681B785A018F
:101CA000FB68134403F530631B6843F080530B60FB
:101CB000BB681B785A01FB68134403F5306319466F
:101CC000BB681B785A01FB68134403F530631B683B
:101CD00043F004430B60002318461837BD4680BD0F
:101CE0000000F81F80B485B000AFF860B9601346FB
:101CF000FB71BB685B78012B40F0D280BB685B69ED
:101D0000002B3BD1BB681B785A01FB68134403F5D9
:101D100010631946BB681B785A01FB68134403F52E
:101D200010631B6923F0FF5323F4C0130B61BB68DE
:101D30001B785A01FB68134403F510631946BB680E
:101D40001B785A01FB68134403F510631B6943F4C5
:101D500000230B61BB681B785A01FB68134403F531
:101D600010631946BB681B785A01FB68134403F5DE
:101D700010631B69DB0CDB040B615AE0BB681B784A
:101D80005A01FB68134403F510631946BB681B78BE
:101D90005A01FB68134403F510631B69DB0CDB0479
:101DA0000B61BB681B785A01FB68134403F5106391
:101DB0001946BB681B785A01FB68134403F510638E
:101DC0001B6923F0FF5323F4C0130B61BB685A69EE
:101DD000BB689B689A4203D9BB689A68BB685A6122
:101DE000BB681B785A01FB68134403F5106319465E
:101DF000BB681B785A01FB68134403F510631B6929
:101E000043F400230B61BB681B785A01FB68134441
:101E100003F510631946BB681B785A01FB6813442D
:101E200003F510631A69BB685B69C3F312031343BC
:101E30000B61BB681B785A01FB68134403F5106300
:101E40001946BB681B785A01FB68134403F51063FD
:101E50001B6843F004430B60FB79012B0BD1BB687B
:101E60001B785A01FB68134403F510631A46BB68DC
:101E70001B6953618EE0BB685B69002B00F08A80B0
:101E8000FB6803F500631946FB6803F500635A6BB2
:101E9000BB681B7818460123834013434B6379E0EA
:101EA000BB681B785A01FB68134403F5306319467D
:101EB000BB681B785A01FB68134403F530631B6948
:101EC000DB0CDB040B61BB681B785A01FB68134415
:101ED00003F530631946BB681B785A01FB6813444D
:101EE00003F530631B6923F0FF5323F4C0130B6128
:101EF000BB685B69002B03D0BB689A68BB685A61FA
:101F0000BB681B785A01FB68134403F5306319461C
:101F1000BB681B785A01FB68134403F530631B69E7
:101F200043F400230B61BB681B785A01FB68134420
:101F300003F530631946BB681B785A01FB681344EC
:101F400003F530631A69BB689B68C3F3120313433C
:101F50000B61FB79012B0AD1BB681B785A01FB6826
:101F6000134403F530631A46BB68DB685361BB68F2
:101F70001B785A01FB68134403F530631946BB68AC
:101F80001B785A01FB68134403F530631B6843F068
:101F900004430B60002318461437BD465DF8047BEC
:101FA000704780B487B000AFF860B96011461A4638
:101FB0000B46FB711346BB8000233B6100237B6112
:101FC00097F82030002B1AD1BB8803339B083B6164
:101FD00000237B610FE0FB791A03FB68134403F5D0
:101FE00080531A46BB681B6813607B6901337B61B1
:101FF000BB680433BB607A693B699A42EBD3002328
:1020000018461C37BD465DF8047B704780B487B026
:1020100000AFF860B9601346FB8000237B61FB884A
:1020200003339B083B6100237B610BE0FB6803F5F6
:1020300080531A68BB681A607B6901337B61BB6897
:102040000433BB607A693B699A42EFD3BB68184698
:102050001C37BD465DF8047B704780B483B000AF89
:10206000786039603B685B78012B30D13B681B7826
:102070005A017B68134403F510631B68002B12DBC5
:102080003B681B785A017B68134403F510631946BB
:102090003B681B785A017B68134403F510631B6887
:1020A00023F080430B603B681B785A017B68134424
:1020B00003F5106319463B681B785A017B6813448B
:1020C00003F510631B6843F400130B602FE03B68BB
:1020D0001B785A017B68134403F530631B68002B9F
:1020E00012DB3B681B785A017B68134403F53063AD
:1020F00019463B681B785A017B68134403F530632B
:102100001B6823F080430B603B681B785A017B6897
:10211000134403F5306319463B681B785A017B680A
:10212000134403F530631B6843F400130B60002372
:1021300018460C37BD465DF8047B704780B483B009
:1021400000AF786039603B685B78012B2ED13B682B
:102150001B785A017B68134403F5106319463B68EA
:102160001B785A017B68134403F510631B6823F442
:1021700000130B603B68DB78032B03D03B68DB78F4
:10218000022B41D13B681B785A017B68134403F54D
:10219000106319463B681B785A017B68134403F5AA
:1021A00010631B6843F080530B602DE03B681B7885
:1021B0005A017B68134403F5306319463B681B786A
:1021C0005A017B68134403F530631B6823F4001342
:1021D0000B603B68DB78032B03D03B68DB78022B7A
:1021E00012D13B681B785A017B68134403F53063B6
:1021F00019463B681B785A017B68134403F530632A
:102200001B6843F080530B60002318460C37BD4613
:102210005DF8047B704780B483B000AF78600B46F4
:10222000FB707B6803F500631A467B6803F5006367
:102230001B6823F4FE6313607B6803F50063194693
:102240007B6803F500631A68FB781B0103F4FE63E7
:1022500013430B60002318460C37BD465DF8047B22
:10226000704780B582B000AF78607B6803F500638B
:102270001A467B6803F500635B6823F00203536032
:10228000032004F05DFA002318460837BD4680BDE0
:1022900080B582B000AF78607B6803F500631A46B2
:1022A0007B6803F500635B6843F00203536003201F
:1022B00004F046FA002318460837BD4680BD80B4B6
:1022C00085B000AF78600023FB607B685B69FB60D2
:1022D0007B689B69FA681340FB60FB6818461437FB
:1022E000BD465DF8047B704780B485B000AF786070
:1022F0007B6803F500639B69FB607B6803F5006303
:10230000DB69FA681340FB60FB681B0C1846143746
:10231000BD465DF8047B704780B485B000AF78603F
:102320007B6803F500639B69FB607B6803F50063D2
:10233000DB69FA681340FB60FB689BB218461437F0
:10234000BD465DF8047B704780B485B000AF78600F
:102350000B46FB70FB785A017B68134403F530632E
:102360009B68FB607B6803F500635B69FA68134058
:10237000FB60FB6818461437BD465DF8047B704768
:1023800080B487B000AF78600B46FB707B6803F5C4
:1023900000631B697B617B6803F500635B6B3B61DA
:1023A000FB783A6922FA03F3DB01DBB27A69134363
:1023B0007B61FB785A017B68134403F510639A68CC
:1023C0007B691340FB60FB6818461C37BD465DF80F
:1023D000047B704780B483B000AF78607B685B6932
:1023E00003F0010318460C37BD465DF8047B7047C7
:1023F00080B483B000AF78607B6803F510631A4641
:102400007B6803F510631B6823F4FF6323F0070365
:1024100013607B6803F500639B6803F00603042BDD
:102420000AD17B6803F510631A467B6803F51063D5
:102430001B6843F0030313607B6803F500631A46CF
:102440007B6803F500635B6843F48073536000238B
:1024500018460C37BD465DF8047B704780B485B0E4
:1024600000AFF8600B467A60FB72FB6803F53063DF
:102470001A4600231361FB6803F530631A46FB68B4
:1024800003F530631B6943F400231361FB6803F514
:1024900030631A46FB6803F530631B6943F0180389
:1024A0001361FB6803F530631A46FB6803F530637C
:1024B0001B6943F0C0431361FB7A012B0CD1FB680D
:1024C00003F530631A467B685361FB6803F530639C
:1024D0001A464FF080231360002318461437BD4678
:1024E0005DF8047B7047000080B485B000AF786071
:1024F0000023FB60FB680133FB60FB68134A9342D7
:1025000001D903231BE07B681B69002BF2DA00234F
:10251000FB607B681B6943F001027B681A61FB6802
:102520000133FB60FB68094A934201D9032306E0AB
:102530007B681B6903F00103012BF0D000231846D0
:102540001437BD465DF8047B704700BF400D0300A3
:1025500080B485B000AF78600B46FB7013463B80BB
:102560000023FB730023BB607B681B685B6ABB6056
:10257000FB78002B07D17B681B683A881104BA6886
:102580000A439A6228E07B681B689B6A1B0CBA6846
:102590001344BB600023FB730DE07B681A68FB7B70
:1025A00040339B0013445B681B0CBA681344BB6048
:1025B000FB7B0133FB73FA7BFB78013B9A42ECDB3C
:1025C0007B681968FB78013B3A881004BA680243BB
:1025D00040339B000B445A60002318461437BD4615
:1025E0005DF8047B704780B483B000AF78600B4621
:1025F0007B807B681B687A885A62002318460C37F8
:10260000BD465DF8047B704780B400AF164A164B98
:10261000D3F8883043F47003C2F88830134A134B60
:102620001B6843F001031360104B00229A600F4AAD
:102630000E4B1B6823F0847323F4803313600B4B21
:102640000B4A5A60094A094B1B6823F48023136024
:10265000064B0022DA60044B4FF000629A6000BF24
:10266000BD465DF8047B704700ED00E00038024095
:102670001030002480B588B000AF78607B681B689C
:102680001D4A934233D14FF45043FB6002233B6118
:1026900000237B610023BB610C23FB6107F10C036A
:1026A0001946164803F04CFE4FF40053FB6000231C
:1026B0003B6100237B6107F10C0319460F4803F0CF
:1026C0003FFE0023BB600E4A0D4B1B6B43F00053D3
:1026D00013630B4B1B6B03F00053BB60BB68002202
:1026E00005214D2002F01BFE4D2002F034FE00BFFC
:1026F0002037BD4680BD00BF0000044000040240FA
:102700000038024080B582B000AF78607B68D3F8B3
:10271000EC237B6803F56F731946104604F032FA18
:1027200000BF0837BD4680BD80B582B000AF78607D
:102730000B46FB707B68D3F8EC03FA787968134694
:10274000DB009B1A9B000B4403F501731A68FB78AE
:10275000194604F061FA00BF0837BD4680BD80B558
:1027600082B000AF78600B46FB707B68D3F8EC0357
:10277000FA7879681346DB009B1A9B000B444433BC
:102780001A68FB78194604F0A2FA00BF0837BD4664
:1027900080BD80B582B000AF78607B68D3F8EC3341
:1027A000184604F088FB00BF0837BD4680BD80B5E1
:1027B00084B000AF78600123FB737B68DB68002B7B
:1027C00002D0022B03D005E00023FB7305E00123B8
:1027D000FB7302E00123FB7300BF7B68D3F8EC338B
:1027E000FA7B1146184604F030FB7B68D3F8EC33D3
:1027F000184604F0FBFA00BF1037BD4680BD00004C
:1028000080B582B000AF78607B68D3F8EC331846AF
:1028100004F02BFB7B681B6803F560631A467B683A
:102820001B6803F560631B6843F0010313607B685A
:102830001B6A002B05D0054A044B1B6943F00603B5
:10284000136100BF0837BD4680BD00BF00ED00E04A
:1028500080B582B000AF78607B68D3F8EC3318465F
:1028600004F018FB00BF0837BD4680BD80B582B0BC
:1028700000AF78600B46FB707B68D3F8EC33FA78D6
:102880001146184604F03EFB00BF0837BD4680BD28
:1028900080B582B000AF78600B46FB707B68D3F8E0
:1028A000EC33FA781146184604F01FFB00BF0837D6
:1028B000BD4680BD80B582B000AF78607B68D3F83C
:1028C000EC33184604F02BFB00BF0837BD4680BD33
:1028D00080B582B000AF78607B68D3F8EC331846DF
:1028E00004F028FB00BF0837BD4680BD80B582B02C
:1028F00000AF78607B681B78012B46D1254A7B6846
:10290000C2F8EC337B68234AC3F82022214B224AC9
:102910001A60204B06225A601E4B0222DA601D4BC1
:1029200000221A611B4B00225A611A4B02229A6143
:10293000184B0022DA61174B00221A62154B002255
:102940005A62144B0022DA62124B00221A63114BB6
:1029500000225A630F4800F0E7FA0346002B04D028
:102960004FF49F710D48FEF7C3F94FF40071094809
:10297000FFF739FE802200210648FFF7E9FD4FF4FA
:10298000BA7201210348FFF7E3FD00231846083718
:10299000BD4680BDA8410020000004406C900008A6
:1029A00080B584B000AF78600023BB730023FB7355
:1029B0007B68D3F82032184600F0BDFB0346BB739A
:1029C000BB7B032B16D801A252F823F0DD290008A7
:1029D000E3290008E9290008EF2900080023FB7318
:1029E0000BE00223FB7308E00123FB7305E00223E5
:1029F000FB7302E00223FB7300BFFB7B184610371A
:102A0000BD4680BD80B584B000AF786008461146F1
:102A10001A460346FB700B46BB7013463B800023EF
:102A2000BB730023FB737B68D3F82002BB783A8822
:102A3000F97801F04EF80346BB73BB7B032B17D824
:102A400001A252F823F000BF592A00085F2A0008AB
:102A5000652A00086B2A00080023FB730BE00223A1
:102A6000FB7308E00123FB7305E00223FB7302E024
:102A70000223FB7300BFFB7B18461037BD4680BDA9
:102A800080B584B000AF78600B46FB700023BB7349
:102A90000023FB737B68D3F82032FA78114618467E
:102AA00001F07FF80346BB73BB7B032B16D801A252
:102AB00052F823F0C52A0008CB2A0008D12A0008C2
:102AC000D72A00080023FB730BE00223FB7308E006
:102AD0000123FB7305E00223FB7302E00223FB7377
:102AE00000BFFB7B18461037BD4680BD80B584B063
:102AF00000AF78600B46FB700023BB730023FB73B1
:102B00007B68D3F82032FA781146184601F03FF975
:102B10000346BB73BB7B032B16D801A252F823F0EC
:102B2000312B0008372B00083D2B0008432B0008F1
:102B30000023FB730BE00223FB7308E00123FB730C
:102B400005E00223FB7302E00223FB7300BFFB7B63
:102B500018461037BD4680BD80B584B000AF7860A0
:102B60000B46FB700023BB730023FB737B68D3F819
:102B70002032FA781146184601F064F90346BB7317
:102B8000BB7B032B16D801A252F823F09D2B000823
:102B9000A32B0008A92B0008AF2B00080023FB7310
:102BA0000BE00223FB7308E00123FB7305E0022323
:102BB000FB7302E00223FB7300BFFB7B1846103758
:102BC000BD4680BD80B485B000AF78600B46FB7019
:102BD0007B68D3F82032FB6097F90330002B0BDAC7
:102BE000FB7803F07F02F9681346DB009B1A9B0019
:102BF0000B443A331B780BE0FB7803F07F02F96853
:102C00001346DB009B1A9B000B4403F5FD731B78F6
:102C100018461437BD465DF8047B704780B584B014
:102C200000AF78600B46FB700023BB730023FB737F
:102C30007B68D3F82032FA781146184600F028FF56
:102C40000346BB73BB7B032B16D801A252F823F0BB
:102C5000612C0008672C00086D2C0008732C0008FC
:102C60000023FB730BE00223FB7308E00123FB73DB
:102C700005E00223FB7302E00223FB7300BFFB7B32
:102C800018461037BD4680BD80B586B000AFF860ED
:102C90007A601A460B46FB7213463B810023BB75D4
:102CA0000023FB75FB68D3F820023B89F97A7A6828
:102CB00001F024F80346BB75BB7D032B16D801A297
:102CC00052F823F0D52C0008DB2C0008E12C00087A
:102CD000E72C00080023FB750BE00223FB7508E0DE
:102CE0000123FB7505E00223FB7502E00223FB755F
:102CF00000BFFB7D18461837BD4680BD80B586B045
:102D000000AFF8607A601A460B46FB7213463B81AF
:102D10000023BB750023FB75FB68D3F820023B89B9
:102D2000F97A7A6800F087FF0346BB75BB7D032BF9
:102D300016D801A252F823F0492D00084F2D0008A3
:102D4000552D00085B2D00080023FB750BE00223C6
:102D5000FB7508E00123FB7505E00223FB7502E02B
:102D60000223FB7500BFFB7D18461837BD4680BDAA
:102D700080B582B000AF78600B46FB707B68D3F8FB
:102D80002032FA781146184600F09FFF0346184695
:102D90000837BD4680BD80B485B000AF0346FB80D8
:102DA0000023FB60B7F90630842B05D0B7F9062065
:102DB000FB6813440333FB60FB6818461437BD46B9
:102DC0005DF8047B704780B500AF04F027FA00235C
:102DD000184680BDF0B587B002AF786039607B6877
:102DE0005C687B681D687B681B699EB27B68B3F971
:102DF00008301846FFF7CFFF024607F10C03019396
:102E000000923B6832462946204604F0AAF8034661
:102E1000012B01D0002300E0FB6818461437BD46A3
:102E2000F0BD80B584B000AF78607B68FB60FB6864
:102E3000002B01D0FB6800E00123184604F0BAF92A
:102E4000002318461037BD4680BD80B500AF04F0A2
:102E5000B5FC0346012B01D001F08EFC00BF80BD04
:102E600080B500AF032002F04FFA002200216FF07E
:102E70000B0002F054FA002200216FF00A0002F069
:102E80004EFA002200216FF0090002F048FA0022F9
:102E900000216FF0040002F042FA002200216FF0DE
:102EA000030002F03CFA00220F216FF0010002F053
:102EB00036FA00220F214FF0FF3002F030FA00BF47
:102EC00080BD000080B588B000AF78607B681B686B
:102ED000124A93421ED10023BB60114A104B5B6C17
:102EE00043F0100353640E4B5B6C03F01003BB60A4
:102EF000BB684FF4C063FB6002233B6101237B612D
:102F00000323BB610723FB6107F10C031946054846
:102F100003F016FA00BF2037BD4680BD0010014007
:102F20000038024000000240F0B58FB00AAF786070
:102F30000023FB607B68002B01D10123F7E07B6855
:102F4000032283F8B9237868FFF794FB7B681B683A
:102F50001846FEF73BF97B681B683B607E686D4650
:102F600006F110040FCC0FC50FCC0FC594E8030079
:102F700085E80300331D0ECB3868FEF7C5F87B6883
:102F80001B6800211846FEF732F90023FB604CE075
:102F90007968FA681346DB009B1A9B000B443933AF
:102FA00001221A70FB68D8B27968FA681346DB0010
:102FB0009B1A9B000B44383302461A70FB6898B288
:102FC0007968FA681346DB009B1A9B000B443E337A
:102FD00002461A807968FA681346DB009B1A9B0048
:102FE0000B443B3300221A707968FA681346DB0001
:102FF0009B1A9B000B44403300221A607968FA68E0
:103000001346DB009B1A9B000B44443300221A60DA
:103010007968FA681346DB009B1A9B000B444C331B
:1030200000221A60FB680133FB60FB680E2BAFD9EE
:103030000023FB605AE07968FA681346DB009B1AAC
:103040009B000B4403F2F91300221A70FB68D8B2FC
:103050007968FA681346DB009B1A9B000B4403F562
:10306000FC7302461A70FB6898B27968FA681346D6
:10307000DB009B1A9B000B443E3302461A807968A2
:10308000FA681346DB009B1A9B000B4403F2FB1308
:1030900000221A707968FA681346DB009B1A9B00BD
:1030A0000B4403F5007300221A607968FA6813462E
:1030B000DB009B1A9B000B4403F5017300221A608E
:1030C0007968FA681346DB009B1A9B000B4403F5F2
:1030D000037300221A607B681A68FB6840339B0008
:1030E000134400225A60FB680133FB60FB680E2B1F
:1030F000A1D97B681B683B607E686D4606F11004B1
:103100000FCC0FC50FCC0FC594E8030085E8030072
:10311000331D0ECB3868FEF791F87B68012283F8E7
:10312000B9237B681B681846FFF7B2F800231846DE
:103130001437BD46F0BD80B582B000AF78607B68C3
:1031400093F8B833012B01D1022312E07B680122EE
:1031500083F8B8237B681B681846FFF782F87B6802
:103160001B681846FEF721F87B68002283F8B82315
:10317000002318460837BD4680BD000080B58CB0DE
:1031800000AF78607B681B683B620023FB62002312
:10319000BB620023FB6100237B620023BB61002331
:1031A0007B617C4B3B617B681B681846FFF712F91B
:1031B0000346002B40F068847B681B681846FFF7C5
:1031C0007EF80346002B00F05E847B681B6818467F
:1031D000FFF775F8034603F00203022B07D17B6863
:1031E0001B687A681268526902F002025A617B68B1
:1031F0001B681846FFF763F8034603F40023B3F592
:10320000002F40F0B28000237B627B681B68184669
:10321000FFF76AF8B862A4E0BB6A03F00103002B71
:1032200000F099807B681B687A6AD2B21146184612
:10323000FFF78AF8F861FB6903F00103002B6BD0FC
:103240007B6A5A013B6A134403F530631A46012333
:1032500093607B681B69012B3CD179687A6A1346BD
:10326000DB009B1A9B000B4403F500731A687B6A12
:1032700059013B6A0B4403F530631B69C3F3120326
:10328000D11A78687A6A1346DB009B1A9B000344C4
:1032900003F50473196079687A6A1346DB009B1A98
:1032A0009B000B4403F50173196878687A6A13462A
:1032B000DB009B1A9B00034403F500731B68194451
:1032C00078687A6A1346DB009B1A9B00034403F577
:1032D000017319607B6ADBB219467868FFF724FA3C
:1032E0007B681B69012B17D17B6A002B14D179688D
:1032F0007A6A1346DB009B1A9B000B4403F50373A9
:103300001B68002B08D17B6818687B6803F56F7316
:103310001A460121FFF7A2F8FB6903F00803002B0E
:103320000BD07868FFF7EEF97B6A5A013B6A1344C9
:1033300003F530631A4608239360FB6903F010031A
:10334000002B08D07B6A5A013B6A134403F53063B3
:103350001A46102393607B6A01337B62BB6A5B0869
:10336000BB62BB6A002B7FF457AF7B681B681846B3
:10337000FEF7A5FF034603F48023B3F5802F40F04A
:10338000C5807B681B681846FEF7C6FFB86200233D
:103390007B62B7E00095BA0ABB6A03F00103002B19
:1033A00000F0AA807B681B687A6AD2B21146184680
:1033B000FEF7E6FFF861FB6903F00103002B5AD02A
:1033C00001227B6A02FA03F3BB613B6A03F50063E7
:1033D00019463B6A03F500635A6BBB69DB43134034
:1033E0004B637B6A5A013B6A134403F510631A4628
:1033F000012393607B681B69012B1BD179687A6A72
:103400001346DB009B1A9B000B4444331968786811
:103410007A6A1346DB009B1A9B00034440331B6807
:10342000194478687A6A1346DB009B1A9B000344B0
:10343000443319607B6ADBB219467868FFF78FF96D
:103440007B681B69012B16D17B6A002B13D179682D
:103450007A6A1346DB009B1A9B000B444C331B68B3
:10346000002B08D17B6818687B6803F56F731A46D8
:103470000121FEF7F3FFFB6903F00803002B08D0DE
:103480007B6A5A013B6A134403F510631A4608230A
:103490009360FB6903F01003002B08D07B6A5A018C
:1034A0003B6A134403F510631A4610239360FB69CB
:1034B00003F04003002B08D07B6A5A013B6A134497
:1034C00003F510631A4640239360FB6903F002037F
:1034D000002B08D07B6A5A013B6A134403F5106342
:1034E0001A4602239360FB6903F08003002B03D08C
:1034F000796A786800F0F1FC7B6A01337B62BB6A11
:103500005B08BB62BB6A002B7FF446AF7B681B681D
:103510001846FEF7D4FE034603F00043B3F1004F14
:1035200015D13B6A03F500631A463B6A03F5006355
:103530005B6823F0010353607868FFF789F97B68C3
:103540001B687A681268526902F000425A617B680F
:103550001B681846FEF7B3FE034603F40063B3F599
:10356000006F12D13B6A03F500639B6803F001030F
:10357000012B02D17868FFF743F97B681B687A68F2
:103580001268526902F400625A617B681B6818462F
:10359000FEF795FE034603F48053B3F5805F40F0D9
:1035A00091803B6A03F500631A463B6A03F50063AA
:1035B0005B6823F0010353607B681B681021184689
:1035C000FDF76EFF0023FB6214E0FB6A5A013B6AC1
:1035D000134403F510631A46FF239360FB6A5A01F4
:1035E0003B6A134403F530631A46FF239360FB6A7A
:1035F0000133FB627B685A68FB6A9A42E5D83B6AF2
:1036000003F500631A464FF0FF3393613B6A03F5FD
:1036100000631A463B6A03F50063DB6943F001135C
:10362000D3617B681B6B002B18D03B6A03F50063EA
:103630001A463B6A03F50063D3F8843043F00B036A
:10364000C2F884303B6A03F500631A463B6A03F50F
:1036500000635B6C43F00B03536415E03B6A03F5B6
:1036600000631A463B6A03F500635B6943F00B0392
:1036700053613B6A03F500631A463B6A03F5006336
:103680001B6943F00B0313613B6A03F500631A46A1
:103690003B6A03F500631B6823F4FE6313607B68D9
:1036A00018687B681B69D9B27B6803F56F731A468B
:1036B000FEF7D4FE7B681B687A681268526902F4D0
:1036C00080525A617B681B681846FEF7F8FD034676
:1036D00003F40053B3F5005F40F0DA807B681B68A9
:1036E0001846FEF785FE7B681B687A681268D26808
:1036F00022F47052DA607B681B681846FDF730FFD1
:103700000346002B0FD17B680022DA607B684FF400
:1037100000725A617B681B687A681268D26842F44A
:103720001052DA60A9E07B680322DA607B684022ED
:103730005A6102F007FD38613B697B4A93420CD91C
:103740003B697A4A934208D87B681B687A6812689A
:10375000D26842F47052DA608FE03B69734A934258
:103760000CD93B69724A934208D87B681B687A6817
:103770001268D26842F46052DA607EE03B696C4ABB
:1037800093420CD93B696B4A934208D87B681B680B
:103790007A681268D26842F45052DA606DE03B6990
:1037A000644A93420CD93B69634A934208D87B68C8
:1037B0001B687A681268D26842F44052DA605CE0B2
:1037C0003B695D4A93420CD93B695C4A934208D8F5
:1037D0007B681B687A681268D26842F43052DA60FB
:1037E0004BE03B69554A93420CD93B69544A93429A
:1037F00008D87B681B687A681268D26842F4205245
:10380000DA603AE03B694E4A93420CD93B694D4A33
:10381000934208D87B681B687A681268D26842F4C1
:103820001052DA6029E03B69464A93420CD93B6961
:10383000454A934208D87B681B687A681268D26848
:1038400042F40052DA6018E03B693F4A93420CD9D7
:103850003B693E4A934208D87B681B687A681268C5
:10386000D26842F4E052DA6007E07B681B687A684D
:103870001268D26842F4C052DA607868FEF797FFA7
:103880007B681B687A681268526902F400525A61B8
:103890007B681B681846FEF712FD034603F0100311
:1038A000102B74D17B681B687A681268926922F0C9
:1038B00010029A613B6A1B6A7B617B6903F00F020D
:1038C0001346DB009B1A9B0003F5FC737A681344D4
:1038D000FB607B695B0C03F00F03022B38D17A6924
:1038E00047F6F0731340002B49D0FB68D9687B6919
:1038F0001B099BB2C3F30A039BB21A46386AFEF750
:1039000085FBFB68DA687B691B09C3F30A031A4469
:10391000FB68DA60FB689A697B691B09C3F30A03D9
:103920001A44FB689A612AE0BFACD800BFE1E4000A
:10393000FF23F4007F7306019F491A01FF2C310118
:103940003FA44C01FF356E011FABA601FF47E80104
:103950007B695B0C03F00F03062B10D17B6803F52A
:103960006F7308221946386AFEF750FBFB689A69A4
:103970007B691B09C3F30A031A44FB689A617B68DD
:103980001B687A681268926942F010029A617B683B
:103990001B681846FEF793FC034603F00803082B48
:1039A0000AD17868FEF7F5FE7B681B687A681268B2
:1039B000526902F008025A617B681B681846FEF7DC
:1039C0007EFC034603F48013B3F5801F0DD17B6AA0
:1039D000DBB219467868FEF75BFF7B681B687A6884
:1039E0001268526902F480125A617B681B6818469B
:1039F000FEF765FC034603F40013B3F5001F0DD179
:103A00007B6ADBB219467868FEF730FF7B681B687B
:103A10007A681268526902F400125A617B681B6866
:103A20001846FEF74CFC034603F08043B3F1804F89
:103A30000AD17868FEF73EFF7B681B687A681268D7
:103A4000526902F080425A617B681B681846FEF793
:103A500036FC034603F00403042B15D17B681B6876
:103A60005B687B617B6903F00403002B02D07868FC
:103A7000FEF72EFF7B681B687A68126851687A69C6
:103A80000A435A6000E000BF3037BD4680BD00BF2A
:103A900080B582B000AF78600B46FB707B6893F80E
:103AA000B833012B01D102230FE07B68012283F898
:103AB000B8237B681B68FA7811461846FEF7ABFB03
:103AC0007B68002283F8B823002318460837BD46D8
:103AD00080BD80B584B000AF7860084611461A46B4
:103AE0000346FB700B463B801346BB700023FB7202
:103AF00097F90330002B0BDAFB7803F07F021346B3
:103B0000DB009B1A9B0038337A681344FB600BE0A0
:103B1000FB7803F07F021346DB009B1A9B0003F542
:103B2000FC737A681344FB60FB7803F07F03DAB21E
:103B3000FB681A7097F90330DBB2DB09DBB21A4677
:103B4000FB685A703A88FB689A60FB68BA78DA704A
:103B5000FB685B78002B04D0FB681B789AB2FB688B
:103B6000DA80BB78022B02D1FB6800221A717B68D5
:103B700093F8B833012B01D102230EE07B680122B8
:103B800083F8B8237B681B68F9681846FDF71DFDAC
:103B90007B68002283F8B823FB7A18461037BD46AD
:103BA00080BD80B584B000AF78600B46FB7097F99C
:103BB0000330002B0BDAFB7803F07F021346DB00A7
:103BC0009B1A9B0038337A681344FB600BE0FB7848
:103BD00003F07F021346DB009B1A9B0003F5FC7386
:103BE0007A681344FB60FB7803F07F03DAB2FB686A
:103BF0001A7097F90330DBB2DB09DBB21A46FB68B7
:103C00005A707B6893F8B833012B01D102230EE080
:103C10007B68012283F8B8237B681B68F968184623
:103C2000FDF75CFD7B68002283F8B823002318466B
:103C30001037BD4680BD80B586B000AFF8607A60B1
:103C40003B600B46FB72FB7A03F07F021346DB00FE
:103C50009B1A9B0003F5FC73FA6813447B617B6934
:103C60007A68DA607B693A685A617B6900229A61F6
:103C70007B6900225A70FB7A03F07F03DAB27B691A
:103C80001A70FB681B69012B02D17A687B691A6183
:103C9000FB7A03F07F03002B09D1FB681868FB68EF
:103CA0001B69DBB21A467969FEF71CF808E0FB686D
:103CB0001868FB681B69DBB21A467969FDF7D0FD0D
:103CC000002318461837BD4680BD80B483B000AFCE
:103CD00078600B46FB70FB7803F00F02796813469F
:103CE000DB009B1A9B000B4403F504731B689BB21B
:103CF00018460C37BD465DF8047B704780B586B02A
:103D000000AFF8607A603B600B46FB72FB7A03F011
:103D10007F021346DB009B1A9B003833FA6813447A
:103D20007B617B697A68DA607B693A685A617B6992
:103D300000229A617B6901225A70FB7A03F07F03AB
:103D4000DAB27B691A70FB681B69012B02D17A68B1
:103D50007B691A61FB7A03F07F03002B09D1FB68B2
:103D60001868FB681B69DBB21A467969FDF7BAFF70
:103D700008E0FB681868FB681B69DBB21A467969C2
:103D8000FDF76EFD002318461837BD4680BD80B58F
:103D900084B000AF78600B46FB7097F90330002BBE
:103DA0000BDAFB7803F07F021346DB009B1A9B00C3
:103DB00038337A681344FB6009E0FA781346DB0075
:103DC0009B1A9B0003F5FC737A681344FB60FB6845
:103DD00001229A70FB7803F07F03DAB2FB681A7055
:103DE00097F90330DBB2DB09DBB21A46FB685A7085
:103DF0007B6893F8B833012B01D102231EE07B6866
:103E0000012283F8B8237B681B68F9681846FEF71F
:103E100024F9FB7803F07F03002B0AD17B68186834
:103E20007B681B69D9B27B6803F56F731A46FEF78E
:103E300015FB7B68002283F8B8230023184610374F
:103E4000BD4680BD80B584B000AF78600B46FB7086
:103E500097F90330002B0BDAFB7803F07F0213464F
:103E6000DB009B1A9B0038337A681344FB6009E03F
:103E7000FA781346DB009B1A9B0003F5FC737A6803
:103E80001344FB60FB6800229A70FB7803F07F0309
:103E9000DAB2FB681A7097F90330DBB2DB09DBB2E8
:103EA0001A46FB685A707B6893F8B833012B01D12E
:103EB00002230EE07B68012283F8B8237B681B682D
:103EC000F9681846FEF73AF97B68002283F8B823B0
:103ED000002318461037BD4680BD80B58AB002AFBA
:103EE000786039607B681B687B610023FB6100237D
:103EF0003B613A681346DB009B1A9B0038337A68B3
:103F00001344FB60FB685A69FB689B69D31AFB6129
:103F1000FB689A68FB699A4202D2FB689B68FB6166
:103F2000FB6903339B08BB612BE0FB685A69FB68A4
:103F30009B69D31AFB61FB689A68FB699A4202D2BB
:103F4000FB689B68FB61FB6903339B08BB61FB68F3
:103F5000D9683B68DAB2FB6998B27B681B69DBB24F
:103F6000009303467869FEF71CF8FB68DA68FB6982
:103F70001A44FB68DA60FB689A69FB691A44FB68BB
:103F80009A613B685A017B69134403F510639B698E
:103F90009AB2BB699A4209D9FB689A69FB685B6966
:103FA0009A4203D2FB685B69002BBED1FB69002BF0
:103FB00010D101223B6802FA03F33B617B6903F5F0
:103FC000006319467B6903F500635A6B3B69DB4369
:103FD00013404B63002318462037BD4680BD80B593
:103FE00084B000AF78600B46FB700023FB737B68E6
:103FF0001B7C002B0ED14FF40073022281217868C4
:10400000FEF700FD4FF40073022201217868FEF7ED
:10401000F9FC0BE04023022281217868FEF7F2FCD4
:104020004023022201217868FEF7ECFC08230322DA
:1040300082217868FEF7E6FC4FF4077003F0DCFF9E
:1040400003461A467B68C3F818227B68D3F81832F7
:10405000002B02D10123FB7326E07B68D3F81832D2
:10406000BB607B68D3F81C321B689847BB68002292
:10407000C3F81422BB680022C3F818227B681B7C9B
:10408000002B09D1BB68D3F804224FF4007301213F
:104090007868FEF733FE07E0BB68D3F804224023BC
:1040A00001217868FEF72AFEFB7B18461037BD46D3
:1040B00080BD80B584B000AF78600B46FB700023F4
:1040C000FB7381217868FEF7DBFC01217868FEF73D
:1040D000D7FC82217868FEF7D3FC7B68D3F81832CE
:1040E000002B0ED07B68D3F81C325B6898477B6846
:1040F000D3F81832184603F087FF7B680022C3F814
:104100001822FB7B18461037BD4680BD80B584B0B1
:1041100000AF786039607B68D3F81832FB603B6889
:104120001B7803F06003002B3AD0202B00D043E033
:104130003B68DB88002B29D03B681B785BB2002BE7
:1041400011DA7B68D3F81C329B683A685078F968BA
:104150003A68D2889847F9683B68DB881A467868DD
:1041600002F06AF829E03B685A78FB6883F800227D
:104170003B68DB88DAB2FB6883F80122F9683B68A8
:10418000DB881A46786802F085F816E07B68D3F879
:104190001C329B683A6850780022396898470CE0D6
:1041A0003B685B780A2B01D00B2B05E00122054907
:1041B000786802F041F800BF00BF002318461037AE
:1041C000BD4680BDF83D002080B485B000AF78606A
:1041D0000B46FB707B68D3F81832FB607B68D3F822
:1041E0001832002B05D0FB680022C3F814220023EC
:1041F00000E0022318461437BD465DF8047B704783
:1042000080B584B000AF78600B46FB707B68D3F854
:104210001832FB60FB7819467868FEF7A9FD024664
:10422000FB68C3F80C227B68D3F81832002B0DD042
:104230007B68D3F81C32DB68FA68D2F80402FA68AB
:1042400002F5037211469847002300E00223184646
:104250001037BD4680BD80B584B000AF78607B6804
:10426000D3F81832FB607B68D3F81C32002B15D0D2
:10427000FB6893F80032FF2B10D07B68D3F81C3218
:104280009B68FA6892F80002F968FA6892F80122CD
:1042900092B29847FB68FF2283F800220023184659
:1042A0001037BD4680BD000080B483B000AF786099
:1042B0007B6843221A80034B18460C37BD465DF8D5
:1042C000047B70478C00002080B483B000AF78601E
:1042D0007B6843221A80034B18460C37BD465DF8B5
:1042E000047B70474800002080B483B000AF786042
:1042F0007B6843221A80034B18460C37BD465DF895
:10430000047B7047D000002080B483B000AF786099
:104310007B680A221A80034B18460C37BD465DF8AD
:10432000047B70470400002080B485B000AF786043
:1043300039600223FB733B68002B05D07B683A6829
:10434000C3F81C220023FB73FB7B18461437BD46C1
:104350005DF8047B704780B487B000AFF860B96047
:104360001346FB80FB68D3F818327B617B69BA681F
:10437000C3F80822FA887B69C3F810220023184684
:104380001C37BD465DF8047B704780B485B000AF34
:10439000786039607B68D3F81832FB60FB683A6854
:1043A000C3F80422002318461437BD465DF8047B89
:1043B000704780B584B000AF78607B68D3F818325E
:1043C000FB607B68D3F81832002B17D0FB68D3F85A
:1043D0001432002B10D1FB680122C3F81422FB68B1
:1043E000D3F80822FB68D3F810329BB28121786899
:1043F000FEF74AFC002302E0012300E002231846F6
:104400001037BD4680BD80B584B000AF78607B6852
:10441000D3F81832FB607B68D3F81832002B17D022
:104420007B681B7C002B09D1FB68D3F804224FF476
:10443000007301217868FEF761FC07E0FB68D3F8A0
:104440000422402301217868FEF758FC002300E095
:10445000022318461037BD4680BD000080B485B0E9
:1044600000AFF860B9607A60FB68043BFB60FB68F2
:104470004FF080721A60FB68043BFB60BB6823F05E
:104480000102FB681A60FB68043BFB600C4AFB6896
:104490001A60FB68143BFB607A68FB681A60FB6873
:1044A000043BFB60FB686FF002021A60FB68203B74
:1044B000FB60FB6818461437BD465DF8047B704707
:1044C000C544000880B483B000AF0C4B1B68B3F147
:1044D000FF3F09D04FF0500383F31188BFF36F8F74
:1044E000BFF34F8F7B60FEE74FF0500383F31188DB
:1044F000BFF36F8FBFF34F8F3B60FEE714010020C7
:10450000074B19680868B0E8F04F80F30988BFF3DB
:104510006F8F4FF0000080F311887047AFF3008079
:10452000043E002000BF00BF06480068006880F31A
:10453000088862B661B6BFF34F8FBFF36F8F00DF9D
:1045400000BF00BF08ED00E080B586B000AF3B4B78
:104550001B683B4A934209D14FF0500383F3118803
:10456000BFF36F8FBFF34F8F3B61FEE7334B1B6889
:10457000344A934209D14FF0500383F31188BFF3BB
:104580006F8FBFF34F8FFB60FEE72F4B7B617B6923
:104590001B78DBB2BB607B69FF221A707B691B78DA
:1045A000DBB2FB71FB79DBB203F05003DAB2274BCD
:1045B0001A70274B07221A6009E0254B1B68013B44
:1045C000234A1360FB79DBB25B00DBB2FB71FB7942
:1045D000DBB203F08003802BEFD01D4B1B681B0266
:1045E0001B4A13601A4B1B6803F4E063184A1360FC
:1045F000BB68DAB27B691A70164A164B1B6843F423
:1046000070031360134A134B1B6843F0704313602D
:1046100000F0D2F8104B00221A6000F0E9F80F4ABF
:104620000E4B1B6843F040431360FFF77DFFFFF71D
:1046300049FF002318461837BD4680BD00ED00E055
:1046400071C20F4170C20F4100E400E0F93D00204B
:10465000FC3D002020ED00E01401002034EF00E0DC
:1046600080B483B000AF4FF0500383F31188BFF3E1
:104670006F8FBFF34F8F7B600E4B1B6801330D4A6A
:1046800013600C4B1B68012B0ED10B4B1B68DBB26C
:10469000002B09D04FF0500383F31188BFF36F8FC5
:1046A000BFF34F8F3B60FEE700BF0C37BD465DF8A0
:1046B000047B70471401002004ED00E080B483B057
:1046C00000AF114B1B68002B09D14FF0500383F34F
:1046D0001188BFF36F8FBFF34F8F7B60FEE70A4BEC
:1046E0001B68013B084A1360074B1B68002B04D171
:1046F00000233B603B6883F3118800BF0C37BD4645
:104700005DF8047B704700BF14010020000000002A
:10471000EFF30980BFF36F8F154B1A681EF0100F6F
:1047200008BF20ED108A20E9F04F10604DF8043DDD
:104730004FF0500080F31188BFF34F8FBFF36F8F9E
:1047400002F018FF4FF0000080F3118808BC1968D0
:104750000868B0E8F04F1EF0100F08BFB0EC108AE8
:1047600080F30988BFF36F8F704700BFAFF30080FD
:10477000043E002000BF00BF80B582B000AF4FF004
:10478000500383F31188BFF36F8FBFF34F8F7B60AC
:1047900002F034FE0346002B03D0064B4FF080524C
:1047A0001A6000233B603B6883F3118800BF083721
:1047B000BD4680BD04ED00E080B400AF084A094B5F
:1047C0001B680949A1FB03139B09013B1360074BBD
:1047D00007221A6000BFBD465DF8047B704700BF2A
:1047E00014E000E000000020D34D621010E000E073
:1047F000DFF80C00016841F470010160704700BFF0
:1048000088ED00E080B58CB000AF78600023FB62DB
:104810000023BB6200227968362000F080FD36203C
:1048200000F099FD0023FB601F4A1F4B1B6C43F0F7
:10483000100313641C4B1B6C03F01003FB60FB683C
:1048400007F1100207F114031146184601F0AEFCFF
:1048500001F084FC03465B00FB62FB6A134AA2FB87
:1048600003239B0C013BBB62114B124A1A60104B95
:1048700040F2E732DA600E4ABB6A53600C4B00220A
:104880001A610B4B00229A60094800F09BFD034619
:10489000002B04D1064800F0CAFD034600E00123C6
:1048A00018463037BD4680BD0038024083DE1B43CA
:1048B000984500200010004080B584B000AF7860BB
:1048C00039600023FB733B685B78092B39D801A260
:1048D00052F823F0254900083949000843490008E7
:1048E0002F4900084349000807490008FD4800080F
:1048F000434900081B4900081149000839687868D5
:1049000000F036F922E03968786800F025FA1DE0F9
:104910003968786800F05EFA18E03968786800F065
:10492000E1FA13E03968786800F00EFB0EE03968B0
:10493000786800F033FB09E03968786800F049FBDB
:1049400004E03968786800F0A9FB00BFFB7B1846DB
:104950001037BD4680BD00BF80B584B000AF786021
:1049600039600023FB737B6893F8FC31032B1BD168
:104970003B689B88DBB2012B11D87B68D3F81432DB
:104980009B683968786898473B68DB88002B10D1B2
:10499000FB7B002B0DD1786801F0ACFC09E0396895
:1049A000786800F07BFB04E03968786800F076FBFB
:1049B00000E000BF002318461037BD4680BD80B51B
:1049C00084B000AF786039600023FB733B689B883C
:1049D000BB733B681B7803F06003202B08D17B6816
:1049E000D3F814329B683968786898470023BAE096
:1049F0003B685B78012B39D0032B02D0002B6BD0A6
:104A0000B0E07B6893F8FC31022B02D0032B0CD072
:104A100025E0BB7B002B27D0BB7B802B24D0BB7B2E
:104A200019467868FEF762F81EE03B685B88002B49
:104A30000AD1BB7B002B07D0BB7B802B04D0BB7B78
:104A400019467868FEF752F87B68D3F814329B68F1
:104A5000396878689847786801F04CFC05E0396857
:104A6000786800F01BFB00E000BF7BE07B6893F8F8
:104A7000FC31022B02D0032B0CD024E0BB7B002B9B
:104A800026D0BB7B802B23D0BB7B19467868FEF7F2
:104A90002DF81DE03B685B88002B1BD1BB7B03F02E
:104AA0007F03002B0BD0BB7B19467868FEF754F8C8
:104AB0007B68D3F814329B683968786898477868BF
:104AC00001F018FC06E03968786800F0E7FA02E0C7
:104AD00000BF47E000BF45E07B6893F8FC31022B44
:104AE00002D0032B0BD036E0BB7B03F07F03002BFF
:104AF00036D0BB7B19467868FDF7F8FF30E097F9B0
:104B00000E30002B08DABB7B03F07F0301331B015F
:104B10007A681344043307E0BB7B03F07F03103350
:104B20001B017A6813440433BB60BB7B1946786869
:104B3000FEF748F80346002B03D0BB6801221A6039
:104B400002E0BB6800221A60BB680222194678683E
:104B500001F072FB05E03968786800F09FFA00E028
:104B600000BF00BFFB7B18461037BD4680BD00006C
:104B700080B584B000AF786039603B685B881B0A01
:104B80009BB2013B062B00F2C98001A252F823F030
:104B9000AD4B0008C54B0008054C00081D4D000832
:104BA0001D4D0008C94C0008EF4C00087B68D3F885
:104BB00010321B687A68127C07F10A011046984788
:104BC000F860B0E07B681B7C002B0DD17B68D3F8CC
:104BD00014329B6A07F10A0210469847F860FB6896
:104BE000013302221A709EE07B68D3F81432DB6A2C
:104BF00007F10A0210469847F860FB680133022269
:104C00001A7090E03B685B88DBB2052B56D801A296
:104C100052F823F02D4C0008454C00085D4C00086C
:104C2000754C00088D4C0008A54C00087B68D3F833
:104C300010325B687A68127C07F10A0110469847C7
:104C4000F86040E07B68D3F810329B687A68127C89
:104C500007F10A0110469847F86034E07B68D3F802
:104C60001032DB687A68127C07F10A011046984717
:104C7000F86028E07B68D3F810321B697A68127CF0
:104C800007F10A0110469847F8601CE07B68D3F8EA
:104C900010325B697A68127C07F10A011046984766
:104CA000F86010E07B68D3F810329B697A68127C58
:104CB00007F10A0110469847F86004E039687868FF
:104CC00000F0ECF944E02EE07B681B7C002B09D15E
:104CD0007B68D3F814325B6B07F10A0210469847E1
:104CE000F86020E03968786800F0D8F930E07B6837
:104CF0001B7C002B0DD17B68D3F814321B6B07F1A2
:104D00000A0210469847F860FB68013307221A70C0
:104D100009E03968786800F0C1F919E03968786805
:104D200000F0BCF914E07B89002B11D03B68DB88D4
:104D3000002B0DD03B68DA887B89934228BF13464D
:104D40009BB27B817B891A46F968786801F074FA16
:104D50001037BD4680BD00BF80B584B000AF78601D
:104D600039603B689B88002B2CD13B68DB88002B8B
:104D700028D13B685B88DBB203F07F03FB737B6861
:104D800093F8FC31032B04D13968786800F086F978
:104D90001CE07B68FA7B83F8FE21FB7B1946786870
:104DA000FDF73CFF786801F0A5FAFB7B002B04D0EF
:104DB0007B68022283F8FC2108E07B68012283F8EB
:104DC000FC2103E03968786800F068F900BF10370B
:104DD000BD4680BD80B582B000AF786039603B6869
:104DE0005B88DAB23E4B1A703D4B1B78012B04D91D
:104DF0003968786800F052F96FE07B6893F8FC310D
:104E0000022B02D0032B23D062E0354B1B78002B02
:104E10001AD0334B1B781A467B685A607B68032292
:104E200083F8FC212E4B1B781946786801F078FE38
:104E30000346022B04D13968786800F02FF94CE062
:104E4000786801F057FA48E0786801F053FA44E0D6
:104E5000234B1B78002B12D17B68022283F8FC21A4
:104E60001F4B1B781A467B685A601D4B1B781946EE
:104E7000786801F074FE786801F03CFA2DE0184B78
:104E80001B781A467B685B689A421DD07B685B681A
:104E9000DBB21946786801F062FE114B1B781A46A6
:104EA0007B685A600E4B1B781946786801F038FE13
:104EB0000346022B04D13968786800F0EFF80CE063
:104EC000786801F017FA08E0786801F013FA04E056
:104ED0003968786800F0E2F800BF0837BD4680BD49
:104EE000003E002080B582B000AF786039603B683A
:104EF000DB88012B04D03968786800F0CFF81FE018
:104F00007B6893F8FC31022B02D0032B0BD012E00C
:104F10007B6800229A607B68083301221946786812
:104F200001F08AF90CE07B680433012219467868A5
:104F300001F082F904E03968786800F0AFF800BF4A
:104F400000BF0837BD4680BD80B582B000AF786035
:104F500039607B6893F8FC31023B012B15D87B68E4
:104F60000122DA607B68D3F80432002B05D07B681D
:104F7000DB6843F002027B68DA607B680C33022254
:104F80001946786801F058F904E03968786800F04B
:104F900085F800BF00BF0837BD4680BD80B582B030
:104FA00000AF786039603B685B88012B0DD17B686E
:104FB0000122C3F804227B68D3F814329B68396855
:104FC00078689847786801F095F900BF0837BD46C2
:104FD00080BD80B582B000AF786039607B6893F89F
:104FE000FC31023B012B12D83B685B88012B13D1AB
:104FF0007B680022C3F804227B68D3F814329B68D4
:10500000396878689847786801F074F904E039687D
:10501000786800F043F800E000BF00BF0837BD46E5
:1050200080BD80B483B000AF786039603B681A7887
:105030007B681A703B685A787B685A703B68023309
:105040001B789AB23B6803331B789BB21B029BB25E
:1050500013449AB27B685A803B6804331B789AB237
:105060003B6805331B789BB21B029BB213449AB278
:105070007B689A803B6806331B789AB23B6807339B
:105080001B789BB21B029BB213449AB27B68DA80F6
:1050900000BF0C37BD465DF8047B704780B582B019
:1050A00000AF7860396080217868FDF71FFD00212E
:1050B0007868FDF71BFD00BF0837BD4680BD80B591
:1050C00086B000AFF860B9607A600023FB75FB68BA
:1050D000002B33D0F86800F035F8034601339BB25B
:1050E0005B009AB27B681A80FB7D5A1CFA751A46DF
:1050F000BB6813447A681288D2B21A70FB7D5A1CBE
:10510000FA751A46BB68134403221A7012E0FB7D3D
:105110005A1CFA751A46BB681A44FB68591CF96098
:105120001B781370FB7D5A1CFA751A46BB68134432
:1051300000221A70FB681B78002BE8D100BF1837DB
:10514000BD4680BD80B485B000AF78600023FB739E
:1051500005E0FB7B0133FB737B6801337B607B687D
:105160001B78002BF5D1FB7B18461437BD465DF844
:10517000047B704780B485B000AF78607B6803F033
:105180000703FB600C4BDB68BB60BA684FF6FF039C
:105190001340BB60FB681A02BB68134343F0BF6354
:1051A00043F40033BB60044ABB68D36000BF1437CC
:1051B000BD465DF8047B704700ED00E080B400AFB1
:1051C000044BDB681B0A03F007031846BD465DF875
:1051D000047B704700ED00E080B483B000AF03466D
:1051E000FB71094997F907305B09FA7902F01F0250
:1051F000012000FA02F241F8232000BF0C37BD461F
:105200005DF8047B704700BF00E100E080B483B02C
:1052100000AF03463960FB7197F90730002B0BDABA
:105220000D49FB7903F00F03043B3A68D2B2120137
:10523000D2B20B441A7609E0084997F907303A6868
:10524000D2B21201D2B20B4483F8002300BF0C3754
:10525000BD465DF8047B704700ED00E000E100E032
:1052600080B489B000AFF860B9607A60FB6803F081
:105270000703FB61FB69C3F10703042B28BF042369
:10528000BB61FB690433062B02D9FB69033B00E0D9
:1052900000237B610122BB6902FA03F35A1EBB683B
:1052A0001A407B699A4001217B6901FA03F3591E78
:1052B0007B680B40134318462437BD465DF8047BDA
:1052C0007047000080B582B000AF78607B68013B1A
:1052D000B3F1807F01D301230FE00A4A7B68013BD1
:1052E00053600F214FF0FF30FFF790FF054B002276
:1052F0009A60044B07221A60002318460837BD46FF
:1053000080BD00BF10E000E080B582B000AF7860E3
:105310007868FFF72FFF00BF0837BD4680BD80B516
:1053200086B000AF0346B9607A60FB7300237B61EF
:10533000FFF744FF78617A68B9687869FFF790FFF2
:10534000024697F90F3011461846FFF75FFF00BF7E
:105350001837BD4680BD80B582B000AF0346FB71F3
:1053600097F907301846FFF737FF00BF0837BD46EB
:1053700080BD80B582B000AF78607868FFF7A2FF8B
:10538000034618460837BD4680BD000080B483B090
:1053900000AF78607B68042B06D1094A084B1B6874
:1053A00043F00403136005E0054A054B1B6823F036
:1053B0000403136000BF0C37BD465DF8047B7047E3
:1053C00010E000E080B582B000AF78607B68002B11
:1053D00001D101231DE07B6893F83930DBB2002B4B
:1053E00006D17B68002283F83820786800F015F831
:1053F0007B68022283F839207B681A687B68043353
:105400001946104600F05EF97B68012283F83920C6
:10541000002318460837BD4680BD80B483B000AF76
:10542000786000BF0C37BD465DF8047B704780B4E0
:1054300083B000AF78607B681B687A681268D268B6
:1054400042F00102DA607B681B687A6812681268B1
:1054500042F001021A60002318460C37BD465DF881
:10546000047B704780B582B000AF78607B681B68B2
:105470001B6903F00203022B22D17B681B68DB68E7
:1054800003F00203022B1BD17B681B686FF0020242
:105490001A617B6801221A767B681B689B6903F09E
:1054A0000303002B03D0786800F0EEF805E078687D
:1054B00000F0E0F8786800F0F1F87B6800221A76D6
:1054C0007B681B681B6903F00403042B22D17B68F3
:1054D0001B68DB6803F00403042B1BD17B681B688B
:1054E0006FF004021A617B6802221A767B681B68DF
:1054F0009B6903F44073002B03D0786800F0C4F874
:1055000005E0786800F0B6F8786800F0C7F87B68C6
:1055100000221A767B681B681B6903F00803082BBE
:1055200022D17B681B68DB6803F00803082B1BD1C2
:105530007B681B686FF008021A617B6804221A7688
:105540007B681B68DB6903F00303002B03D07868DA
:1055500000F09AF805E0786800F08CF8786800F0C0
:105560009DF87B6800221A767B681B681B6903F034
:105570001003102B22D17B681B68DB6803F010033B
:10558000102B1BD17B681B686FF010021A617B68BF
:1055900008221A767B681B68DB6903F44073002BD2
:1055A00003D0786800F070F805E0786800F062F8E1
:1055B000786800F073F87B6800221A767B681B68B5
:1055C0001B6903F00103012B0ED17B681B68DB68AC
:1055D00003F00103012B07D17B681B686FF0010208
:1055E0001A617868FBF772FB7B681B681B6903F024
:1055F0008003802B0ED17B681B68DB6803F080037F
:10560000802B07D17B681B686FF080021A61786875
:1056100000F008FE7B681B681B6903F04003402B09
:105620000ED17B681B68DB6803F04003402B07D179
:105630007B681B686FF040021A61786800F038F8E8
:105640007B681B681B6903F02003202B0ED17B684D
:105650001B68DB6803F02003202B07D17B681B68E5
:105660006FF020021A61786800F0D2FD00BF0837A1
:10567000BD4680BD80B483B000AF786000BF0C37FA
:10568000BD465DF8047B704780B483B000AF78609E
:1056900000BF0C37BD465DF8047B704780B483B013
:1056A00000AF786000BF0C37BD465DF8047B7047E3
:1056B00080B483B000AF786000BF0C37BD465DF8A2
:1056C000047B704780B485B000AF786039600023F8
:1056D000FB607B681B68FB607B68444A934213D085
:1056E0007B68B3F1804F0FD07B68414A93420BD067
:1056F0007B68404A934207D07B683F4A934203D07D
:105700007B683E4A934201D1012300E00023002B35
:1057100008D0FB6823F07003FB603B685B68FA68A5
:105720001343FB607B68314A93422BD07B68B3F113
:10573000804F27D07B682E4A934223D07B682D4A26
:1057400093421FD07B682C4A93421BD07B682B4A24
:10575000934217D07B682A4A934213D07B68294A28
:1057600093420FD07B68284A93420BD07B68274A2C
:10577000934207D07B68264A934203D07B68254A30
:10578000934201D1012300E00023002B08D0FB68E5
:1057900023F44073FB603B68DB68FA681343FB60EB
:1057A0007B68FA681A603B689A687B68DA623B68D3
:1057B0001A687B689A627B680C4A934203D07B68C4
:1057C0000E4A934201D1012300E00023002B03D0B5
:1057D0003B681A697B681A637B6801225A6100BFC3
:1057E0001437BD465DF8047B704700BF00000140E0
:1057F0000004004000080040000C0040000401408C
:1058000000400140004401400048014000180040B1
:10581000001C00400020004080B483B000AF7860DE
:105820007B6803F108027B685A607B684FF0FF32A7
:105830009A607B6803F108027B68DA607B6803F199
:1058400008027B681A617B6800221A6000BF0C376F
:10585000BD465DF8047B704780B483B000AF7860CC
:105860007B6800221A6100BF0C37BD465DF8047BDF
:10587000704780B485B000AF786039607B685B6842
:10588000FB603B68FA685A60FB689A683B689A60FC
:10589000FB689B683A685A60FB683A689A603B68A4
:1058A0007A681A617B681B685A1C7B681A6000BFA3
:1058B0001437BD465DF8047B704780B485B000AFF7
:1058C000786039603B681B68BB60BB68B3F1FF3F21
:1058D00003D17B681B69FB600CE07B680833FB60CD
:1058E00002E0FB685B68FB60FB685B681A68BB688A
:1058F0009A42F6D9FB685A683B685A603B685B6815
:105900003A689A603B68FA689A60FB683A685A603D
:105910003B687A681A617B681B685A1C7B681A604E
:1059200000BF1437BD465DF8047B704780B485B076
:1059300000AF78607B681B69FB607B685B687A6896
:1059400092689A607B689B687A6852685A60FB68C4
:105950005A687B689A4203D17B689A68FB685A60F0
:105960007B6800221A61FB681B685A1EFB681A607C
:10597000FB681B6818461437BD465DF8047B70470A
:1059800080B584B000AF78607B68002B01D1012323
:1059900013E27B681B6803F00103002B75D09F4B5B
:1059A0009B6803F00C03042B0CD09C4B9B6803F00A
:1059B0000C03082B12D1994B5B6803F48003B3F5F9
:1059C000800F0BD1954B1B6803F40033002B5BD089
:1059D0007B685B68002B57D10123EEE17B685B6835
:1059E000B3F5803F06D18D4A8C4B1B6843F480335E
:1059F00013601DE07B685B68B3F5A02F0CD1874A6C
:105A0000864B1B6843F480231360844A834B1B68D6
:105A100043F4803313600BE0804A804B1B6823F40F
:105A2000803313607D4A7D4B1B6823F48023136011
:105A30007B685B68002B13D000F076FEF86008E00E
:105A400000F072FE0246FB68D31A642B01D90323CF
:105A5000B3E1724B1B6803F40033002BF0D014E069
:105A600000F062FEF86008E000F05EFE0246FB68AF
:105A7000D31A642B01D903239FE1684B1B6803F4FD
:105A80000033002BF0D100E000BF7B681B6803F0FF
:105A90000203002B63D0614B9B6803F00C03002BC7
:105AA0000BD05E4B9B6803F00C03082B1CD15B4BA7
:105AB0005B6803F48003002B16D1584B1B6803F07E
:105AC0000203002B05D07B68DB68012B01D001238A
:105AD00073E15249514B1B6823F0F8027B681B6944
